{"abi":[{"type":"constructor","inputs":[{"name":"_feeRecipient","type":"address","internalType":"address"}],"stateMutability":"nonpayable"},{"type":"function","name":"buyTicket","inputs":[{"name":"listingId","type":"bytes32","internalType":"bytes32"},{"name":"amount","type":"uint256","internalType":"uint256"}],"outputs":[],"stateMutability":"payable"},{"type":"function","name":"calculateFees","inputs":[{"name":"collection","type":"address","internalType":"address"},{"name":"tokenId","type":"uint256","internalType":"uint256"},{"name":"amount","type":"uint256","internalType":"uint256"},{"name":"pricePerTicket","type":"uint256","internalType":"uint256"}],"outputs":[{"name":"totalPrice","type":"uint256","internalType":"uint256"},{"name":"platformFee","type":"uint256","internalType":"uint256"},{"name":"ruleFee","type":"uint256","internalType":"uint256"}],"stateMutability":"view"},{"type":"function","name":"cancelListing","inputs":[{"name":"listingId","type":"bytes32","internalType":"bytes32"}],"outputs":[],"stateMutability":"nonpayable"},{"type":"function","name":"collectionListings","inputs":[{"name":"","type":"address","internalType":"address"},{"name":"","type":"uint256","internalType":"uint256"}],"outputs":[{"name":"","type":"bytes32","internalType":"bytes32"}],"stateMutability":"view"},{"type":"function","name":"feeRecipient","inputs":[],"outputs":[{"name":"","type":"address","internalType":"address"}],"stateMutability":"view"},{"type":"function","name":"getMaxAllowedPrice","inputs":[{"name":"collection","type":"address","internalType":"address"},{"name":"tokenId","type":"uint256","internalType":"uint256"}],"outputs":[{"name":"maxPrice","type":"uint256","internalType":"uint256"}],"stateMutability":"view"},{"type":"function","name":"getUserActiveListings","inputs":[{"name":"user","type":"address","internalType":"address"}],"outputs":[{"name":"activeListings","type":"bytes32[]","internalType":"bytes32[]"}],"stateMutability":"view"},{"type":"function","name":"listTicket","inputs":[{"name":"collection","type":"address","internalType":"address"},{"name":"tokenId","type":"uint256","internalType":"uint256"},{"name":"amount","type":"uint256","internalType":"uint256"},{"name":"pricePerTicket","type":"uint256","internalType":"uint256"}],"outputs":[{"name":"listingId","type":"bytes32","internalType":"bytes32"}],"stateMutability":"nonpayable"},{"type":"function","name":"listingCounter","inputs":[],"outputs":[{"name":"","type":"uint256","internalType":"uint256"}],"stateMutability":"view"},{"type":"function","name":"listings","inputs":[{"name":"","type":"bytes32","internalType":"bytes32"}],"outputs":[{"name":"seller","type":"address","internalType":"address"},{"name":"collection","type":"address","internalType":"address"},{"name":"tokenId","type":"uint256","internalType":"uint256"},{"name":"amount","type":"uint256","internalType":"uint256"},{"name":"pricePerTicket","type":"uint256","internalType":"uint256"},{"name":"listingTime","type":"uint256","internalType":"uint256"},{"name":"active","type":"bool","internalType":"bool"}],"stateMutability":"view"},{"type":"function","name":"onERC1155BatchReceived","inputs":[{"name":"","type":"address","internalType":"address"},{"name":"","type":"address","internalType":"address"},{"name":"","type":"uint256[]","internalType":"uint256[]"},{"name":"","type":"uint256[]","internalType":"uint256[]"},{"name":"","type":"bytes","internalType":"bytes"}],"outputs":[{"name":"","type":"bytes4","internalType":"bytes4"}],"stateMutability":"nonpayable"},{"type":"function","name":"onERC1155Received","inputs":[{"name":"","type":"address","internalType":"address"},{"name":"","type":"address","internalType":"address"},{"name":"","type":"uint256","internalType":"uint256"},{"name":"","type":"uint256","internalType":"uint256"},{"name":"","type":"bytes","internalType":"bytes"}],"outputs":[{"name":"","type":"bytes4","internalType":"bytes4"}],"stateMutability":"nonpayable"},{"type":"function","name":"owner","inputs":[],"outputs":[{"name":"","type":"address","internalType":"address"}],"stateMutability":"view"},{"type":"function","name":"platformFeeBps","inputs":[],"outputs":[{"name":"","type":"uint256","internalType":"uint256"}],"stateMutability":"view"},{"type":"function","name":"renounceOwnership","inputs":[],"outputs":[],"stateMutability":"nonpayable"},{"type":"function","name":"setFeeRecipient","inputs":[{"name":"newRecipient","type":"address","internalType":"address"}],"outputs":[],"stateMutability":"nonpayable"},{"type":"function","name":"setPlatformFee","inputs":[{"name":"newFeeBps","type":"uint256","internalType":"uint256"}],"outputs":[],"stateMutability":"nonpayable"},{"type":"function","name":"supportsInterface","inputs":[{"name":"interfaceId","type":"bytes4","internalType":"bytes4"}],"outputs":[{"name":"","type":"bool","internalType":"bool"}],"stateMutability":"view"},{"type":"function","name":"transferOwnership","inputs":[{"name":"newOwner","type":"address","internalType":"address"}],"outputs":[],"stateMutability":"nonpayable"},{"type":"function","name":"userListings","inputs":[{"name":"","type":"address","internalType":"address"},{"name":"","type":"uint256","internalType":"uint256"}],"outputs":[{"name":"","type":"bytes32","internalType":"bytes32"}],"stateMutability":"view"},{"type":"event","name":"FeeRecipientUpdated","inputs":[{"name":"oldRecipient","type":"address","indexed":true,"internalType":"address"},{"name":"newRecipient","type":"address","indexed":true,"internalType":"address"}],"anonymous":false},{"type":"event","name":"ListingCancelled","inputs":[{"name":"listingId","type":"bytes32","indexed":true,"internalType":"bytes32"},{"name":"seller","type":"address","indexed":true,"internalType":"address"}],"anonymous":false},{"type":"event","name":"OwnershipTransferred","inputs":[{"name":"previousOwner","type":"address","indexed":true,"internalType":"address"},{"name":"newOwner","type":"address","indexed":true,"internalType":"address"}],"anonymous":false},{"type":"event","name":"PlatformFeeUpdated","inputs":[{"name":"oldFeeBps","type":"uint256","indexed":false,"internalType":"uint256"},{"name":"newFeeBps","type":"uint256","indexed":false,"internalType":"uint256"}],"anonymous":false},{"type":"event","name":"TicketListed","inputs":[{"name":"listingId","type":"bytes32","indexed":true,"internalType":"bytes32"},{"name":"seller","type":"address","indexed":true,"internalType":"address"},{"name":"collection","type":"address","indexed":true,"internalType":"address"},{"name":"tokenId","type":"uint256","indexed":false,"internalType":"uint256"},{"name":"amount","type":"uint256","indexed":false,"internalType":"uint256"},{"name":"pricePerTicket","type":"uint256","indexed":false,"internalType":"uint256"}],"anonymous":false},{"type":"event","name":"TicketSold","inputs":[{"name":"listingId","type":"bytes32","indexed":true,"internalType":"bytes32"},{"name":"buyer","type":"address","indexed":true,"internalType":"address"},{"name":"seller","type":"address","indexed":true,"internalType":"address"},{"name":"collection","type":"address","indexed":false,"internalType":"address"},{"name":"tokenId","type":"uint256","indexed":false,"internalType":"uint256"},{"name":"amount","type":"uint256","indexed":false,"internalType":"uint256"},{"name":"totalPrice","type":"uint256","indexed":false,"internalType":"uint256"},{"name":"platformFee","type":"uint256","indexed":false,"internalType":"uint256"},{"name":"ruleFee","type":"uint256","indexed":false,"internalType":"uint256"}],"anonymous":false},{"type":"error","name":"OwnableInvalidOwner","inputs":[{"name":"owner","type":"address","internalType":"address"}]},{"type":"error","name":"OwnableUnauthorizedAccount","inputs":[{"name":"account","type":"address","internalType":"address"}]},{"type":"error","name":"ReentrancyGuardReentrantCall","inputs":[]}],"bytecode":{"object":"0x608060405260fa60025534801562000015575f80fd5b50604051620020fc380380620020fc83398101604081905262000038916200014a565b60015f5533806200006357604051631e4fbdf760e01b81525f60048201526024015b60405180910390fd5b6200006e81620000f9565b506001600160a01b038116620000d35760405162461bcd60e51b815260206004820152602360248201527f5469636b65744d61726b65743a20696e76616c69642066656520726563697069604482015262195b9d60ea1b60648201526084016200005a565b600380546001600160a01b0319166001600160a01b039290921691909117905562000179565b600180546001600160a01b038381166001600160a01b0319831681179093556040519116919082907f8be0079c531659141344cd1fd0a4f28419497f9722a3daafe3b4186f6b6457e0905f90a35050565b5f602082840312156200015b575f80fd5b81516001600160a01b038116811462000172575f80fd5b9392505050565b611f7580620001875f395ff3fe60806040526004361061011b575f3560e01c80638da5cb5b1161009d578063e295fa7f11610062578063e295fa7f146103cc578063e74b981b146103df578063f23a6e61146103fe578063f2fde38b14610429578063f772ed9114610448575f80fd5b80638da5cb5b146102845780639299e552146102a1578063b8be623a146102c0578063bc197c81146102df578063c18b8db414610323575f80fd5b806346904840116100e357806346904840146101e65780636c2c9c7d1461021d578063715018a614610232578063821029981461024657806386cfa7d314610265575f80fd5b8063018217211461011f57806301ffc9a7146101545780630e467c531461018357806312e8e2c3146101b057806322dcd13e146101d1575b5f80fd5b34801561012a575f80fd5b5061013e61013936600461191d565b610482565b60405161014b919061193f565b60405180910390f35b34801561015f575f80fd5b5061017361016e366004611982565b610637565b604051901515815260200161014b565b34801561018e575f80fd5b506101a261019d3660046119a9565b61066d565b60405190815260200161014b565b3480156101bb575f80fd5b506101cf6101ca3660046119d3565b610698565b005b3480156101dc575f80fd5b506101a260025481565b3480156101f1575f80fd5b50600354610205906001600160a01b031681565b6040516001600160a01b03909116815260200161014b565b348015610228575f80fd5b506101a260045481565b34801561023d575f80fd5b506101cf61073c565b348015610251575f80fd5b506101a26102603660046119ea565b61074f565b348015610270575f80fd5b506101a261027f3660046119a9565b610c5f565b34801561028f575f80fd5b506001546001600160a01b0316610205565b3480156102ac575f80fd5b506101cf6102bb3660046119d3565b610c78565b3480156102cb575f80fd5b506101a26102da3660046119a9565b610d7f565b3480156102ea575f80fd5b5061030a6102f9366004611b5d565b63bc197c8160e01b95945050505050565b6040516001600160e01b0319909116815260200161014b565b34801561032e575f80fd5b5061038a61033d3660046119d3565b600560208190525f918252604090912080546001820154600283015460038401546004850154958501546006909501546001600160a01b0394851696939094169491939092919060ff1687565b604080516001600160a01b039889168152979096166020880152948601939093526060850191909152608084015260a0830152151560c082015260e00161014b565b6101cf6103da366004611c04565b610e20565b3480156103ea575f80fd5b506101cf6103f936600461191d565b61139e565b348015610409575f80fd5b5061030a610418366004611c24565b63f23a6e6160e01b95945050505050565b348015610434575f80fd5b506101cf61044336600461191d565b61144d565b348015610453575f80fd5b506104676104623660046119ea565b611487565b6040805193845260208401929092529082015260600161014b565b6001600160a01b0381165f9081526006602090815260408083208054825181850281018501909352808352606094938301828280156104de57602002820191905f5260205f20905b8154815260200190600101908083116104ca575b505050505090505f805b825181101561054b5760055f84838151811061050657610506611c88565b60209081029190910181015182528101919091526040015f206006015460ff1615610539578161053581611cb0565b9250505b8061054381611cb0565b9150506104e8565b508067ffffffffffffffff81111561056557610565611a22565b60405190808252806020026020018201604052801561058e578160200160208202803683370190505b5092505f805b835181101561062e5760055f8583815181106105b2576105b2611c88565b60209081029190910181015182528101919091526040015f206006015460ff161561061c578381815181106105e9576105e9611c88565b602002602001015185838151811061060357610603611c88565b60209081029190910101528161061881611cb0565b9250505b8061062681611cb0565b915050610594565b50505050919050565b5f6001600160e01b03198216630271189760e51b148061066757506301ffc9a760e01b6001600160e01b03198316145b92915050565b6007602052815f5260405f208181548110610686575f80fd5b905f5260205f20015f91509150505481565b6106a06114da565b6103e88111156106f75760405162461bcd60e51b815260206004820152601a60248201527f5469636b65744d61726b65743a2066656520746f6f206869676800000000000060448201526064015b60405180910390fd5b600280549082905560408051828152602081018490527fd347e206f25a89b917fc9482f1a2d294d749baa4dc9bde7fb495ee11fe491643910160405180910390a15050565b6107446114da565b61074d5f611507565b565b5f610758611558565b6001600160a01b0385166107ae5760405162461bcd60e51b815260206004820181905260248201527f5469636b65744d61726b65743a20696e76616c696420636f6c6c656374696f6e60448201526064016106ee565b5f83116107fd5760405162461bcd60e51b815260206004820152601c60248201527f5469636b65744d61726b65743a20696e76616c696420616d6f756e740000000060448201526064016106ee565b5f821161084c5760405162461bcd60e51b815260206004820152601b60248201527f5469636b65744d61726b65743a20696e76616c6964207072696365000000000060448201526064016106ee565b604051627eeac760e11b815233600482015260248101859052859084906001600160a01b0383169062fdd58e90604401602060405180830381865afa158015610897573d5f803e3d5ffd5b505050506040513d601f19601f820116820180604052508101906108bb9190611cc8565b10156109145760405162461bcd60e51b815260206004820152602260248201527f5469636b65744d61726b65743a20696e73756666696369656e742062616c616e604482015261636560f01b60648201526084016106ee565b60405163e985e9c560e01b81523360048201523060248201526001600160a01b0382169063e985e9c590604401602060405180830381865afa15801561095c573d5f803e3d5ffd5b505050506040513d601f19601f820116820180604052508101906109809190611cee565b6109cc5760405162461bcd60e51b815260206004820152601a60248201527f5469636b65744d61726b65743a206e6f7420617070726f76656400000000000060448201526064016106ee565b6109d586611580565b156109e6576109e6868686866115f4565b33868686864260045f8154809291906109fe90611cb0565b909155506040516bffffffffffffffffffffffff19606098891b811660208301529690971b909516603487015260488601939093526068850191909152608884015260a883015260c882015260e8016040516020818303038152906040528051906020012091506040518060e00160405280336001600160a01b03168152602001876001600160a01b031681526020018681526020018581526020018481526020014281526020016001151581525060055f8481526020019081526020015f205f820151815f015f6101000a8154816001600160a01b0302191690836001600160a01b031602179055506020820151816001015f6101000a8154816001600160a01b0302191690836001600160a01b0316021790555060408201518160020155606082015181600301556080820151816004015560a0820151816005015560c0820151816006015f6101000a81548160ff02191690831515021790555090505060065f336001600160a01b03166001600160a01b031681526020019081526020015f2082908060018154018082558091505060019003905f5260205f20015f909190919091505560075f876001600160a01b03166001600160a01b031681526020019081526020015f2082908060018154018082558091505060019003905f5260205f20015f9091909190915055856001600160a01b0316336001600160a01b0316837f4bca86e1bc365eea26a27d0fe89f3150ceda5bfa9cc49124d26283df738b330b888888604051610c45939291909283526020830191909152604082015260600190565b60405180910390a450610c5760015f55565b949350505050565b6006602052815f5260405f208181548110610686575f80fd5b610c80611558565b5f818152600560205260409020600681015460ff16610ce15760405162461bcd60e51b815260206004820181905260248201527f5469636b65744d61726b65743a206c697374696e67206e6f742061637469766560448201526064016106ee565b80546001600160a01b03163314610d3a5760405162461bcd60e51b815260206004820152601860248201527f5469636b65744d61726b65743a206e6f742073656c6c6572000000000000000060448201526064016106ee565b60068101805460ff19169055604051339083907faf2daca9870585bf8789d28a6290e0b49491e1fb967adc141b2a68c5e386d976905f90a350610d7c60015f55565b50565b5f610d8983611580565b610d9557505f19610667565b5f8390505f816001600160a01b031663fcf196b46040518163ffffffff1660e01b8152600401602060405180830381865afa158015610dd6573d5f803e3d5ffd5b505050506040513d601f19601f82011682018060405250810190610dfa9190611d07565b90506001600160a01b038116610e15575f1992505050610667565b505f19949350505050565b610e28611558565b5f828152600560205260409020600681015460ff16610e895760405162461bcd60e51b815260206004820181905260248201527f5469636b65744d61726b65743a206c697374696e67206e6f742061637469766560448201526064016106ee565b8054336001600160a01b0390911603610ef05760405162461bcd60e51b815260206004820152602360248201527f5469636b65744d61726b65743a2063616e6e6f7420627579206f776e207469636044820152621ad95d60ea1b60648201526084016106ee565b5f82118015610f03575080600301548211155b610f4f5760405162461bcd60e51b815260206004820152601c60248201527f5469636b65744d61726b65743a20696e76616c696420616d6f756e740000000060448201526064016106ee565b5f828260040154610f609190611d22565b905080341015610fbd5760405162461bcd60e51b815260206004820152602260248201527f5469636b65744d61726b65743a20696e73756666696369656e74207061796d656044820152611b9d60f21b60648201526084016106ee565b5f61271060025483610fcf9190611d22565b610fd99190611d39565b60018401549091505f90610ff5906001600160a01b0316611580565b1561101c5760018401546002850154611019916001600160a01b0316908786611794565b90505b5f816110288486611d58565b6110329190611d58565b600186015490915061104c906001600160a01b0316611580565b156111045760018501548554600287015460405163d6d2a78d60e01b81526001600160a01b0392831660048201523360248201526044810191909152606481018990526084810187905261010060a48201525f610104820181905261012060c4830152610124820181905261014060e483015261014482015291169063d6d2a78d90610164015f604051808303815f87803b1580156110e9575f80fd5b505af11580156110fb573d5f803e3d5ffd5b50505050611189565b600185015485546002870154604051637921219560e11b81526001600160a01b03928316600482015233602482015260448101919091526064810189905260a060848201525f60a482015291169063f242432a9060c4015f604051808303815f87803b158015611172575f80fd5b505af1158015611184573d5f803e3d5ffd5b505050505b82156111c8576003546040516001600160a01b039091169084156108fc029085905f818181858888f193505050501580156111c6573d5f803e3d5ffd5b505b811561127557600185015460408051638da5cb5b60e01b815290516001600160a01b03909216918291638da5cb5b9160048083019260209291908290030181865afa158015611219573d5f803e3d5ffd5b505050506040513d601f19601f8201168201806040525081019061123d9190611d07565b6001600160a01b03166108fc8490811502906040515f60405180830381858888f19350505050158015611272573d5f803e3d5ffd5b50505b84546040516001600160a01b039091169082156108fc029083905f818181858888f193505050501580156112ab573d5f803e3d5ffd5b5085856003015f8282546112bf9190611d58565b909155505060038501545f036112dc5760068501805460ff191690555b8334111561131957336108fc6112f28634611d58565b6040518115909202915f818181858888f19350505050158015611317573d5f803e3d5ffd5b505b845460018601546002870154604080516001600160a01b03938416815260208101929092528101899052606081018790526080810186905260a08101859052911690339089907f85b5ffeae0e3e5aa9fa005b815c49520ee8ee3523cf0b60e7febdcf89999cac99060c00160405180910390a4505050505061139a60015f55565b5050565b6113a66114da565b6001600160a01b0381166113fc5760405162461bcd60e51b815260206004820152601f60248201527f5469636b65744d61726b65743a20696e76616c696420726563697069656e740060448201526064016106ee565b600380546001600160a01b038381166001600160a01b0319831681179093556040519116919082907faaebcf1bfa00580e41d966056b48521fa9f202645c86d4ddf28113e617c1b1d3905f90a35050565b6114556114da565b6001600160a01b03811661147e57604051631e4fbdf760e01b81525f60048201526024016106ee565b610d7c81611507565b5f80806114948585611d22565b9250612710600254846114a79190611d22565b6114b19190611d39565b91506114bc87611580565b156114d0576114cd87878786611794565b90505b9450945094915050565b6001546001600160a01b0316331461074d5760405163118cdaa760e01b81523360048201526024016106ee565b600180546001600160a01b038381166001600160a01b0319831681179093556040519116919082907f8be0079c531659141344cd1fd0a4f28419497f9722a3daafe3b4186f6b6457e0905f90a35050565b60025f540361157a57604051633ee5aeb560e01b815260040160405180910390fd5b60025f55565b5f816001600160a01b031663fcf196b46040518163ffffffff1660e01b8152600401602060405180830381865afa9250505080156115db575060408051601f3d908101601f191682019092526115d891810190611d07565b60015b6115e657505f919050565b50600192915050565b919050565b5f8490505f816001600160a01b031663fcf196b46040518163ffffffff1660e01b8152600401602060405180830381865afa158015611635573d5f803e3d5ffd5b505050506040513d601f19601f820116820180604052508101906116599190611d07565b90506001600160a01b03811661167057505061178e565b60408051610100810182523381525f6020820181905291810187905260608101869052608081016116a18787611d22565b815260200142815260200160405180602001604052805f815250815260200160405180602001604052805f81525081525090505f80836001600160a01b031663ae7501f0846040518263ffffffff1660e01b81526004016117029190611db8565b5f60405180830381865afa15801561171c573d5f803e3d5ffd5b505050506040513d5f823e601f3d908101601f191682016040526117439190810190611e51565b9250509150818160405160200161175a9190611ef8565b604051602081830303815290604052906117875760405162461bcd60e51b81526004016106ee9190611f2d565b5050505050505b50505050565b5f808590505f816001600160a01b031663fcf196b46040518163ffffffff1660e01b8152600401602060405180830381865afa1580156117d6573d5f803e3d5ffd5b505050506040513d601f19601f820116820180604052508101906117fa9190611d07565b90506001600160a01b038116611814575f92505050610c57565b60408051610100810182525f80825260208083018290528284018a905260608301899052608083018890524260a08401528351808201855282815260c08401528351908101845281815260e08301529151630ae7501f60e41b81529091906001600160a01b0384169063ae7501f090611891908590600401611db8565b5f60405180830381865afa1580156118ab573d5f803e3d5ffd5b505050506040513d5f823e601f3d908101601f191682016040526118d29190810190611e51565b50915061271090506118f26bffffffffffffffffffffffff831688611d22565b6118fc9190611d39565b9998505050505050505050565b6001600160a01b0381168114610d7c575f80fd5b5f6020828403121561192d575f80fd5b813561193881611909565b9392505050565b602080825282518282018190525f9190848201906040850190845b818110156119765783518352928401929184019160010161195a565b50909695505050505050565b5f60208284031215611992575f80fd5b81356001600160e01b031981168114611938575f80fd5b5f80604083850312156119ba575f80fd5b82356119c581611909565b946020939093013593505050565b5f602082840312156119e3575f80fd5b5035919050565b5f805f80608085870312156119fd575f80fd5b8435611a0881611909565b966020860135965060408601359560600135945092505050565b634e487b7160e01b5f52604160045260245ffd5b604051601f8201601f1916810167ffffffffffffffff81118282101715611a5f57611a5f611a22565b604052919050565b5f82601f830112611a76575f80fd5b8135602067ffffffffffffffff821115611a9257611a92611a22565b8160051b611aa1828201611a36565b9283528481018201928281019087851115611aba575f80fd5b83870192505b84831015611ad957823582529183019190830190611ac0565b979650505050505050565b5f67ffffffffffffffff821115611afd57611afd611a22565b50601f01601f191660200190565b5f82601f830112611b1a575f80fd5b8135611b2d611b2882611ae4565b611a36565b818152846020838601011115611b41575f80fd5b816020850160208301375f918101602001919091529392505050565b5f805f805f60a08688031215611b71575f80fd5b8535611b7c81611909565b94506020860135611b8c81611909565b9350604086013567ffffffffffffffff80821115611ba8575f80fd5b611bb489838a01611a67565b94506060880135915080821115611bc9575f80fd5b611bd589838a01611a67565b93506080880135915080821115611bea575f80fd5b50611bf788828901611b0b565b9150509295509295909350565b5f8060408385031215611c15575f80fd5b50508035926020909101359150565b5f805f805f60a08688031215611c38575f80fd5b8535611c4381611909565b94506020860135611c5381611909565b93506040860135925060608601359150608086013567ffffffffffffffff811115611c7c575f80fd5b611bf788828901611b0b565b634e487b7160e01b5f52603260045260245ffd5b634e487b7160e01b5f52601160045260245ffd5b5f60018201611cc157611cc1611c9c565b5060010190565b5f60208284031215611cd8575f80fd5b5051919050565b805180151581146115ef575f80fd5b5f60208284031215611cfe575f80fd5b61193882611cdf565b5f60208284031215611d17575f80fd5b815161193881611909565b808202811582820484141761066757610667611c9c565b5f82611d5357634e487b7160e01b5f52601260045260245ffd5b500490565b8181038181111561066757610667611c9c565b5f5b83811015611d85578181015183820152602001611d6d565b50505f910152565b5f8151808452611da4816020860160208601611d6b565b601f01601f19169290920160200192915050565b602080825282516001600160a01b0316828201528201515f90611de660408401826001600160a01b03169052565b506040830151606083015260608301516080830152608083015160a083015260a083015160c083015260c08301516101008060e0850152611e2b610120850183611d8d565b915060e0850151601f198584030182860152611e478382611d8d565b9695505050505050565b5f805f60608486031215611e63575f80fd5b611e6c84611cdf565b925060208401516bffffffffffffffffffffffff81168114611e8c575f80fd5b604085015190925067ffffffffffffffff811115611ea8575f80fd5b8401601f81018613611eb8575f80fd5b8051611ec6611b2882611ae4565b818152876020838501011115611eda575f80fd5b611eeb826020830160208601611d6b565b8093505050509250925092565b6d02a34b1b5b2ba26b0b935b2ba1d160951b81525f8251611f2081600e850160208701611d6b565b91909101600e0192915050565b602081525f6119386020830184611d8d56fea2646970667358221220a4439e3e31186cd190903531dd0d3219b5a15e1342a0ee9fb7c13214fade4a6d64736f6c63430008140033","linkReferences":{}},"methodIdentifiers":{"buyTicket(bytes32,uint256)":"e295fa7f","calculateFees(address,uint256,uint256,uint256)":"f772ed91","cancelListing(bytes32)":"9299e552","collectionListings(address,uint256)":"0e467c53","feeRecipient()":"46904840","getMaxAllowedPrice(address,uint256)":"b8be623a","getUserActiveListings(address)":"01821721","listTicket(address,uint256,uint256,uint256)":"82102998","listingCounter()":"6c2c9c7d","listings(bytes32)":"c18b8db4","onERC1155BatchReceived(address,address,uint256[],uint256[],bytes)":"bc197c81","onERC1155Received(address,address,uint256,uint256,bytes)":"f23a6e61","owner()":"8da5cb5b","platformFeeBps()":"22dcd13e","renounceOwnership()":"715018a6","setFeeRecipient(address)":"e74b981b","setPlatformFee(uint256)":"12e8e2c3","supportsInterface(bytes4)":"01ffc9a7","transferOwnership(address)":"f2fde38b","userListings(address,uint256)":"86cfa7d3"},"id":4}