{"abi":[{"type":"function","name":"check","inputs":[{"name":"","type":"tuple","internalType":"struct IRuleEngine.TransferCtx","components":[{"name":"from","type":"address","internalType":"address"},{"name":"to","type":"address","internalType":"address"},{"name":"tokenId","type":"uint256","internalType":"uint256"},{"name":"amount","type":"uint256","internalType":"uint256"},{"name":"priceWei","type":"uint256","internalType":"uint256"},{"name":"time","type":"uint256","internalType":"uint256"},{"name":"zkRegionProof","type":"bytes","internalType":"bytes"},{"name":"zkAgeProof","type":"bytes","internalType":"bytes"}]}],"outputs":[{"name":"allowed","type":"bool","internalType":"bool"},{"name":"feeBps","type":"uint96","internalType":"uint96"},{"name":"reason","type":"string","internalType":"string"}],"stateMutability":"pure"}],"bytecode":{"object":"0x608060405234801561000f575f80fd5b5061014a8061001d5f395ff3fe608060405234801561000f575f80fd5b5060043610610029575f3560e01c8063ae7501f01461002d575b5f80fd5b61005361003b36600461006b565b5060408051602081019091525f808252600192909190565b604051610062939291906100aa565b60405180910390f35b5f6020828403121561007b575f80fd5b813567ffffffffffffffff811115610091575f80fd5b820161010081850312156100a3575f80fd5b9392505050565b83151581525f60206bffffffffffffffffffffffff8516818401526060604084015283518060608501525f5b818110156100f2578581018301518582016080015282016100d6565b505f608082860101526080601f19601f8301168501019250505094935050505056fea26469706673582212206ef8c3907d139cc034526c43a1e3f941b6a33046bc0f425777916b05b00056fc64736f6c63430008140033","linkReferences":{}},"methodIdentifiers":{"check((address,address,uint256,uint256,uint256,uint256,bytes,bytes))":"ae7501f0"},"id":2}