{"abi":[{"type":"constructor","inputs":[],"stateMutability":"nonpayable"},{"type":"function","name":"check","inputs":[{"name":"ctx","type":"tuple","internalType":"struct IRuleEngine.TransferCtx","components":[{"name":"from","type":"address","internalType":"address"},{"name":"to","type":"address","internalType":"address"},{"name":"tokenId","type":"uint256","internalType":"uint256"},{"name":"amount","type":"uint256","internalType":"uint256"},{"name":"priceWei","type":"uint256","internalType":"uint256"},{"name":"time","type":"uint256","internalType":"uint256"},{"name":"zkRegionProof","type":"bytes","internalType":"bytes"},{"name":"zkAgeProof","type":"bytes","internalType":"bytes"}]}],"outputs":[{"name":"allowed","type":"bool","internalType":"bool"},{"name":"feeBps","type":"uint96","internalType":"uint96"},{"name":"reason","type":"string","internalType":"string"}],"stateMutability":"view"},{"type":"function","name":"faceValue","inputs":[{"name":"","type":"address","internalType":"address"},{"name":"","type":"uint256","internalType":"uint256"}],"outputs":[{"name":"","type":"uint256","internalType":"uint256"}],"stateMutability":"view"},{"type":"function","name":"owner","inputs":[],"outputs":[{"name":"","type":"address","internalType":"address"}],"stateMutability":"view"},{"type":"function","name":"paramsOf","inputs":[{"name":"","type":"address","internalType":"address"}],"outputs":[{"name":"eventTimestamp","type":"uint256","internalType":"uint256"},{"name":"baseFeeBps","type":"uint256","internalType":"uint256"},{"name":"tLong","type":"uint256","internalType":"uint256"},{"name":"tMid","type":"uint256","internalType":"uint256"},{"name":"capLongBps","type":"uint256","internalType":"uint256"},{"name":"capMidBps","type":"uint256","internalType":"uint256"},{"name":"feeLongBps","type":"uint256","internalType":"uint256"},{"name":"feeMidBps","type":"uint256","internalType":"uint256"},{"name":"markupStepBps","type":"uint256","internalType":"uint256"},{"name":"markupFeePerStepBps","type":"uint256","internalType":"uint256"},{"name":"maxFeeBps","type":"uint256","internalType":"uint256"}],"stateMutability":"view"},{"type":"function","name":"renounceOwnership","inputs":[],"outputs":[],"stateMutability":"nonpayable"},{"type":"function","name":"setFaceValue","inputs":[{"name":"collection","type":"address","internalType":"address"},{"name":"tokenId","type":"uint256","internalType":"uint256"},{"name":"priceWei","type":"uint256","internalType":"uint256"}],"outputs":[],"stateMutability":"nonpayable"},{"type":"function","name":"setParams","inputs":[{"name":"collection","type":"address","internalType":"address"},{"name":"p","type":"tuple","internalType":"struct RuleEngineV1.Params","components":[{"name":"eventTimestamp","type":"uint256","internalType":"uint256"},{"name":"baseFeeBps","type":"uint256","internalType":"uint256"},{"name":"tLong","type":"uint256","internalType":"uint256"},{"name":"tMid","type":"uint256","internalType":"uint256"},{"name":"capLongBps","type":"uint256","internalType":"uint256"},{"name":"capMidBps","type":"uint256","internalType":"uint256"},{"name":"feeLongBps","type":"uint256","internalType":"uint256"},{"name":"feeMidBps","type":"uint256","internalType":"uint256"},{"name":"markupStepBps","type":"uint256","internalType":"uint256"},{"name":"markupFeePerStepBps","type":"uint256","internalType":"uint256"},{"name":"maxFeeBps","type":"uint256","internalType":"uint256"}]}],"outputs":[],"stateMutability":"nonpayable"},{"type":"function","name":"transferOwnership","inputs":[{"name":"newOwner","type":"address","internalType":"address"}],"outputs":[],"stateMutability":"nonpayable"},{"type":"event","name":"OwnershipTransferred","inputs":[{"name":"previousOwner","type":"address","indexed":true,"internalType":"address"},{"name":"newOwner","type":"address","indexed":true,"internalType":"address"}],"anonymous":false},{"type":"error","name":"OwnableInvalidOwner","inputs":[{"name":"owner","type":"address","internalType":"address"}]},{"type":"error","name":"OwnableUnauthorizedAccount","inputs":[{"name":"account","type":"address","internalType":"address"}]}],"bytecode":{"object":"0x608060405234801561000f575f80fd5b50338061003557604051631e4fbdf760e01b81525f600482015260240160405180910390fd5b61003e81610044565b50610093565b5f80546001600160a01b038381166001600160a01b0319831681178455604051919092169283917f8be0079c531659141344cd1fd0a4f28419497f9722a3daafe3b4186f6b6457e09190a35050565b6109e0806100a05f395ff3fe608060405234801561000f575f80fd5b5060043610610085575f3560e01c80638da5cb5b116100585780638da5cb5b1461019a578063ae7501f0146101b4578063db73cc65146101d6578063f2fde38b146101e9575f80fd5b8063715018a61461008957806378f0a15b14610093578063838c8c641461014f5780638548074e14610162575b5f80fd5b6100916101fc565b005b6100f76100a13660046107dc565b6001602052805f5260405f205f91509050805f01549080600101549080600201549080600301549080600401549080600501549080600601549080600701549080600801549080600901549080600a015490508b565b604080519b8c5260208c019a909a52988a01979097526060890195909552608088019390935260a087019190915260c086015260e0850152610100840152610120830152610140820152610160015b60405180910390f35b61009161015d3660046107fc565b61020f565b61018c61017036600461083a565b600260209081525f928352604080842090915290825290205481565b604051908152602001610146565b5f546040516001600160a01b039091168152602001610146565b6101c76101c2366004610862565b610355565b6040516101469392919061089a565b6100916101e4366004610904565b610686565b6100916101f73660046107dc565b610709565b610204610746565b61020d5f610772565b565b610217610746565b6001600160a01b0382166102725760405162461bcd60e51b815260206004820181905260248201527f52756c65456e67696e6556313a20696e76616c696420636f6c6c656374696f6e60448201526064015b60405180910390fd5b428135116102c25760405162461bcd60e51b815260206004820152601b60248201527f52756c65456e67696e6556313a206576656e7420696e207061737400000000006044820152606401610269565b6001600160a01b0382165f908152600160205260409020819061034f8282813581556020820135600182015560408201356002820155606082013560038201556080820135600482015560a0820135600582015560c0820135600682015560e0820135600782015561010082013560088201556101208201356009820155610140820135600a8201555050565b50505050565b335f81815260016020818152604080842081516101608101835281548082529482015493810193909352600281015491830191909152600381015460608381019190915260048201546080840152600582015460a0840152600682015460c0840152600782015460e084015260088201546101008401526009820154610120840152600a90910154610140830152929384939290919084036104105760015f60405180602001604052805f815250945094509450505061067f565b85608001355f0361043a5760015f60405180602001604052805f815250945094509450505061067f565b6001600160a01b0382165f908152600260209081526040808320898201358452909152812054908190036104a3575f8060405180604001604052806012815260200171119858d9481d985b1d59481b9bdd081cd95d60721b81525095509550955050505061067f565b815142106104e9575f8060405180604001604052806015815260200174115d995b9d08185b1c9958591e481cdd185c9d1959605a1b81525095509550955050505061067f565b81515f906104f8904290610948565b90505f808460400151831115610519575050608083015160c084015161053c565b846060015183111561053657505060a083015160e084015161053c565b505f9050805b5f61054f60608c013560808d0135610961565b90505f61271061055f8588610980565b6105699190610961565b6105739087610997565b9050808211156105bc575f80604051806040016040528060118152602001700507269636520657863656564732063617607c1b8152509a509a509a50505050505050505061067f565b5f868311156105ed57866105d08185610948565b6105dc90612710610980565b6105e69190610961565b90506105f0565b505f5b5f8089610100015111610603575f610613565b6101008901516106139083610961565b90505f896101200151826106279190610980565b90505f81878c6020015161063b9190610997565b6106459190610997565b90508a610140015181111561065c57506101408a01515b60408051602081019091525f815260019f50909d509b5050505050505050505050505b9193909250565b61068e610746565b6001600160a01b0383166106e45760405162461bcd60e51b815260206004820181905260248201527f52756c65456e67696e6556313a20696e76616c696420636f6c6c656374696f6e6044820152606401610269565b6001600160a01b039092165f9081526002602090815260408083209383529290522055565b610711610746565b6001600160a01b03811661073a57604051631e4fbdf760e01b81525f6004820152602401610269565b61074381610772565b50565b5f546001600160a01b0316331461020d5760405163118cdaa760e01b8152336004820152602401610269565b5f80546001600160a01b038381166001600160a01b0319831681178455604051919092169283917f8be0079c531659141344cd1fd0a4f28419497f9722a3daafe3b4186f6b6457e09190a35050565b80356001600160a01b03811681146107d7575f80fd5b919050565b5f602082840312156107ec575f80fd5b6107f5826107c1565b9392505050565b5f8082840361018081121561080f575f80fd5b610818846107c1565b9250610160601f198201121561082c575f80fd5b506020830190509250929050565b5f806040838503121561084b575f80fd5b610854836107c1565b946020939093013593505050565b5f60208284031215610872575f80fd5b813567ffffffffffffffff811115610888575f80fd5b820161010081850312156107f5575f80fd5b83151581525f60206bffffffffffffffffffffffff8516818401526060604084015283518060608501525f5b818110156108e2578581018301518582016080015282016108c6565b505f608082860101526080601f19601f83011685010192505050949350505050565b5f805f60608486031215610916575f80fd5b61091f846107c1565b95602085013595506040909401359392505050565b634e487b7160e01b5f52601160045260245ffd5b8181038181111561095b5761095b610934565b92915050565b5f8261097b57634e487b7160e01b5f52601260045260245ffd5b500490565b808202811582820484141761095b5761095b610934565b8082018082111561095b5761095b61093456fea264697066735822122076ebf6a1d17f81d1e0b1f0496b0969c1b3d93954bcbe221c7b4117648761c75364736f6c63430008140033","linkReferences":{}},"methodIdentifiers":{"check((address,address,uint256,uint256,uint256,uint256,bytes,bytes))":"ae7501f0","faceValue(address,uint256)":"8548074e","owner()":"8da5cb5b","paramsOf(address)":"78f0a15b","renounceOwnership()":"715018a6","setFaceValue(address,uint256,uint256)":"db73cc65","setParams(address,(uint256,uint256,uint256,uint256,uint256,uint256,uint256,uint256,uint256,uint256,uint256))":"838c8c64","transferOwnership(address)":"f2fde38b"},"id":1}