{"abi":[{"type":"constructor","inputs":[{"name":"_name","type":"string","internalType":"string"},{"name":"_uri","type":"string","internalType":"string"},{"name":"owner","type":"address","internalType":"address"}],"stateMutability":"nonpayable"},{"type":"function","name":"balanceOf","inputs":[{"name":"account","type":"address","internalType":"address"},{"name":"id","type":"uint256","internalType":"uint256"}],"outputs":[{"name":"","type":"uint256","internalType":"uint256"}],"stateMutability":"view"},{"type":"function","name":"balanceOfBatch","inputs":[{"name":"accounts","type":"address[]","internalType":"address[]"},{"name":"ids","type":"uint256[]","internalType":"uint256[]"}],"outputs":[{"name":"","type":"uint256[]","internalType":"uint256[]"}],"stateMutability":"view"},{"type":"function","name":"checkIn","inputs":[{"name":"id","type":"uint256","internalType":"uint256"},{"name":"data","type":"bytes","internalType":"bytes"}],"outputs":[],"stateMutability":"nonpayable"},{"type":"function","name":"checkedIn","inputs":[{"name":"","type":"uint256","internalType":"uint256"}],"outputs":[{"name":"","type":"bool","internalType":"bool"}],"stateMutability":"view"},{"type":"function","name":"firstTransferPending","inputs":[{"name":"","type":"address","internalType":"address"},{"name":"","type":"uint256","internalType":"uint256"}],"outputs":[{"name":"","type":"bool","internalType":"bool"}],"stateMutability":"view"},{"type":"function","name":"isApprovedForAll","inputs":[{"name":"account","type":"address","internalType":"address"},{"name":"operator","type":"address","internalType":"address"}],"outputs":[{"name":"","type":"bool","internalType":"bool"}],"stateMutability":"view"},{"type":"function","name":"lastTransferTime","inputs":[{"name":"","type":"address","internalType":"address"},{"name":"","type":"uint256","internalType":"uint256"}],"outputs":[{"name":"","type":"uint256","internalType":"uint256"}],"stateMutability":"view"},{"type":"function","name":"mint","inputs":[{"name":"to","type":"address","internalType":"address"},{"name":"id","type":"uint256","internalType":"uint256"},{"name":"amount","type":"uint256","internalType":"uint256"},{"name":"data","type":"bytes","internalType":"bytes"}],"outputs":[],"stateMutability":"nonpayable"},{"type":"function","name":"name","inputs":[],"outputs":[{"name":"","type":"string","internalType":"string"}],"stateMutability":"view"},{"type":"function","name":"owner","inputs":[],"outputs":[{"name":"","type":"address","internalType":"address"}],"stateMutability":"view"},{"type":"function","name":"renounceOwnership","inputs":[],"outputs":[],"stateMutability":"nonpayable"},{"type":"function","name":"ruleEngine","inputs":[],"outputs":[{"name":"","type":"address","internalType":"contract IRuleEngine"}],"stateMutability":"view"},{"type":"function","name":"safeBatchTransferFrom","inputs":[{"name":"from","type":"address","internalType":"address"},{"name":"to","type":"address","internalType":"address"},{"name":"ids","type":"uint256[]","internalType":"uint256[]"},{"name":"values","type":"uint256[]","internalType":"uint256[]"},{"name":"data","type":"bytes","internalType":"bytes"}],"outputs":[],"stateMutability":"nonpayable"},{"type":"function","name":"safeTransferFrom","inputs":[{"name":"from","type":"address","internalType":"address"},{"name":"to","type":"address","internalType":"address"},{"name":"id","type":"uint256","internalType":"uint256"},{"name":"amount","type":"uint256","internalType":"uint256"},{"name":"data","type":"bytes","internalType":"bytes"}],"outputs":[],"stateMutability":"nonpayable"},{"type":"function","name":"safeTransferFromWithPrice","inputs":[{"name":"from","type":"address","internalType":"address"},{"name":"to","type":"address","internalType":"address"},{"name":"id","type":"uint256","internalType":"uint256"},{"name":"amount","type":"uint256","internalType":"uint256"},{"name":"priceWei","type":"uint256","internalType":"uint256"},{"name":"zkRegionProof","type":"bytes","internalType":"bytes"},{"name":"zkAgeProof","type":"bytes","internalType":"bytes"},{"name":"data","type":"bytes","internalType":"bytes"}],"outputs":[],"stateMutability":"nonpayable"},{"type":"function","name":"setApprovalForAll","inputs":[{"name":"operator","type":"address","internalType":"address"},{"name":"approved","type":"bool","internalType":"bool"}],"outputs":[],"stateMutability":"nonpayable"},{"type":"function","name":"setRuleEngine","inputs":[{"name":"engine","type":"address","internalType":"contract IRuleEngine"}],"outputs":[],"stateMutability":"nonpayable"},{"type":"function","name":"supportsInterface","inputs":[{"name":"interfaceId","type":"bytes4","internalType":"bytes4"}],"outputs":[{"name":"","type":"bool","internalType":"bool"}],"stateMutability":"view"},{"type":"function","name":"transferOwnership","inputs":[{"name":"newOwner","type":"address","internalType":"address"}],"outputs":[],"stateMutability":"nonpayable"},{"type":"function","name":"uri","inputs":[{"name":"","type":"uint256","internalType":"uint256"}],"outputs":[{"name":"","type":"string","internalType":"string"}],"stateMutability":"view"},{"type":"event","name":"ApprovalForAll","inputs":[{"name":"account","type":"address","indexed":true,"internalType":"address"},{"name":"operator","type":"address","indexed":true,"internalType":"address"},{"name":"approved","type":"bool","indexed":false,"internalType":"bool"}],"anonymous":false},{"type":"event","name":"OwnershipTransferred","inputs":[{"name":"previousOwner","type":"address","indexed":true,"internalType":"address"},{"name":"newOwner","type":"address","indexed":true,"internalType":"address"}],"anonymous":false},{"type":"event","name":"TransferBatch","inputs":[{"name":"operator","type":"address","indexed":true,"internalType":"address"},{"name":"from","type":"address","indexed":true,"internalType":"address"},{"name":"to","type":"address","indexed":true,"internalType":"address"},{"name":"ids","type":"uint256[]","indexed":false,"internalType":"uint256[]"},{"name":"values","type":"uint256[]","indexed":false,"internalType":"uint256[]"}],"anonymous":false},{"type":"event","name":"TransferSingle","inputs":[{"name":"operator","type":"address","indexed":true,"internalType":"address"},{"name":"from","type":"address","indexed":true,"internalType":"address"},{"name":"to","type":"address","indexed":true,"internalType":"address"},{"name":"id","type":"uint256","indexed":false,"internalType":"uint256"},{"name":"value","type":"uint256","indexed":false,"internalType":"uint256"}],"anonymous":false},{"type":"event","name":"URI","inputs":[{"name":"value","type":"string","indexed":false,"internalType":"string"},{"name":"id","type":"uint256","indexed":true,"internalType":"uint256"}],"anonymous":false},{"type":"error","name":"ERC1155InsufficientBalance","inputs":[{"name":"sender","type":"address","internalType":"address"},{"name":"balance","type":"uint256","internalType":"uint256"},{"name":"needed","type":"uint256","internalType":"uint256"},{"name":"tokenId","type":"uint256","internalType":"uint256"}]},{"type":"error","name":"ERC1155InvalidApprover","inputs":[{"name":"approver","type":"address","internalType":"address"}]},{"type":"error","name":"ERC1155InvalidArrayLength","inputs":[{"name":"idsLength","type":"uint256","internalType":"uint256"},{"name":"valuesLength","type":"uint256","internalType":"uint256"}]},{"type":"error","name":"ERC1155InvalidOperator","inputs":[{"name":"operator","type":"address","internalType":"address"}]},{"type":"error","name":"ERC1155InvalidReceiver","inputs":[{"name":"receiver","type":"address","internalType":"address"}]},{"type":"error","name":"ERC1155InvalidSender","inputs":[{"name":"sender","type":"address","internalType":"address"}]},{"type":"error","name":"ERC1155MissingApprovalForAll","inputs":[{"name":"operator","type":"address","internalType":"address"},{"name":"owner","type":"address","internalType":"address"}]},{"type":"error","name":"OwnableInvalidOwner","inputs":[{"name":"owner","type":"address","internalType":"address"}]},{"type":"error","name":"OwnableUnauthorizedAccount","inputs":[{"name":"account","type":"address","internalType":"address"}]}],"bytecode":{"object":"0x608060405234801562000010575f80fd5b50604051620020cd380380620020cd8339810160408190526200003391620001b4565b8082620000408162000093565b506001600160a01b0381166200006f57604051631e4fbdf760e01b81525f600482015260240160405180910390fd5b6200007a81620000a5565b506004620000898482620002c7565b505050506200038f565b6002620000a18282620002c7565b5050565b600380546001600160a01b038381166001600160a01b0319831681179093556040519116919082907f8be0079c531659141344cd1fd0a4f28419497f9722a3daafe3b4186f6b6457e0905f90a35050565b634e487b7160e01b5f52604160045260245ffd5b5f82601f8301126200011a575f80fd5b81516001600160401b0380821115620001375762000137620000f6565b604051601f8301601f19908116603f01168101908282118183101715620001625762000162620000f6565b816040528381526020925086838588010111156200017e575f80fd5b5f91505b83821015620001a1578582018301518183018401529082019062000182565b5f93810190920192909252949350505050565b5f805f60608486031215620001c7575f80fd5b83516001600160401b0380821115620001de575f80fd5b620001ec878388016200010a565b9450602086015191508082111562000202575f80fd5b5062000211868287016200010a565b604086015190935090506001600160a01b038116811462000230575f80fd5b809150509250925092565b600181811c908216806200025057607f821691505b6020821081036200026f57634e487b7160e01b5f52602260045260245ffd5b50919050565b601f821115620002c2575f81815260208120601f850160051c810160208610156200029d5750805b601f850160051c820191505b81811015620002be57828155600101620002a9565b5050505b505050565b81516001600160401b03811115620002e357620002e3620000f6565b620002fb81620002f484546200023b565b8462000275565b602080601f83116001811462000331575f8415620003195750858301515b5f19600386901b1c1916600185901b178555620002be565b5f85815260208120601f198616915b82811015620003615788860151825594840194600190910190840162000340565b50858210156200037f57878501515f19600388901b60f8161c191681555b5050505050600190811b01905550565b611d30806200039d5f395ff3fe608060405234801561000f575f80fd5b5060043610610126575f3560e01c80638da5cb5b116100a9578063d6d2a78d1161006e578063d6d2a78d146102c2578063e985e9c5146102d5578063f242432a146102e8578063f2fde38b146102fb578063fcf196b41461030e575f80fd5b80638da5cb5b1461023a578063955361721461025f578063a22cb46514610289578063a4a0a3011461029c578063b1674d67146102af575f80fd5b8063283477ea116100ef578063283477ea146101bd5780632eb2c2d6146101ea5780634e1273f4146101ff578063715018a61461021f578063731133e914610227575f80fd5b8062fdd58e1461012a57806301ffc9a714610150578063020865961461017357806306fdde03146101955780630e89341c146101aa575b5f80fd5b61013d610138366004611433565b610321565b6040519081526020015b60405180910390f35b61016361015e366004611472565b610348565b6040519015158152602001610147565b610163610181366004611494565b60066020525f908152604090205460ff1681565b61019d610397565b60405161014791906114f8565b61019d6101b8366004611494565b610423565b6101636101cb366004611433565b600860209081525f928352604080842090915290825290205460ff1681565b6101fd6101f836600461164e565b6104b5565b005b61021261020d3660046116f5565b610521565b60405161014791906117ea565b6101fd6105f4565b6101fd6102353660046117fc565b610607565b6003546001600160a01b03165b6040516001600160a01b039091168152602001610147565b61013d61026d366004611433565b600760209081525f928352604080842090915290825290205481565b6101fd610297366004611868565b610621565b6101fd6102aa36600461189f565b610630565b6101fd6102bd3660046118ba565b61065a565b6101fd6102d03660046118f4565b610737565b6101636102e33660046119b3565b6108c3565b6101fd6102f63660046119df565b6108f0565b6101fd61030936600461189f565b610904565b600554610247906001600160a01b031681565b5f818152602081815260408083206001600160a01b03861684529091529020545b92915050565b5f6001600160e01b03198216636cdb3d1360e11b148061037857506001600160e01b031982166303a24d0760e21b145b8061034257506301ffc9a760e01b6001600160e01b0319831614610342565b600480546103a490611a43565b80601f01602080910402602001604051908101604052809291908181526020018280546103d090611a43565b801561041b5780601f106103f25761010080835404028352916020019161041b565b820191905f5260205f20905b8154815290600101906020018083116103fe57829003601f168201915b505050505081565b60606002805461043290611a43565b80601f016020809104026020016040519081016040528092919081815260200182805461045e90611a43565b80156104a95780601f10610480576101008083540402835291602001916104a9565b820191905f5260205f20905b81548152906001019060200180831161048c57829003601f168201915b50505050509050919050565b336001600160a01b03861681148015906104d657506104d486826108c3565b155b1561050c5760405163711bec9160e11b81526001600160a01b038083166004830152871660248201526044015b60405180910390fd5b6105198686868686610941565b505050505050565b606081518351146105525781518351604051635b05999160e01b815260048101929092526024820152604401610503565b5f835167ffffffffffffffff81111561056d5761056d61150a565b604051908082528060200260200182016040528015610596578160200160208202803683370190505b5090505f5b84518110156105ec576020808202860101516105bf90602080840287010151610321565b8282815181106105d1576105d1611a7b565b60209081029190910101526105e581611aa3565b905061059b565b509392505050565b6105fc61099f565b6106055f6109cc565b565b61060f61099f565b61061b84848484610a1d565b50505050565b61062c338383610a78565b5050565b61063861099f565b600580546001600160a01b0319166001600160a01b0392909216919091179055565b5f6106653384610321565b116106b25760405162461bcd60e51b815260206004820152601c60248201527f5469636b6574436f6c6c656374696f6e3a206e6f7420686f6c646572000000006044820152606401610503565b5f8281526006602052604090205460ff161561071c5760405162461bcd60e51b8152602060048201526024808201527f5469636b6574436f6c6c656374696f6e3a20616c726561647920636865636b65604482015263321034b760e11b6064820152608401610503565b505f908152600660205260409020805460ff19166001179055565b6001600160a01b038816331480610753575061075388336108c3565b6107ba5760405162461bcd60e51b815260206004820152603260248201527f5469636b6574436f6c6c656374696f6e3a2063616c6c6572206973206e6f74206044820152711bdddb995c881b9bdc88185c1c1c9bdd995960721b6064820152608401610503565b6005546001600160a01b0316156108ac5760408051610100810182526001600160a01b03808b168252898116602083015281830189905260608201889052608082018790524260a083015260c0820186905260e082018590526005549251630ae7501f60e41b815291925f928392919091169063ae7501f090610841908690600401611abb565b5f60405180830381865afa15801561085b573d5f803e3d5ffd5b505050506040513d5f823e601f3d908101601f191682016040526108829190810190611b54565b92505091508181906108a75760405162461bcd60e51b815260040161050391906114f8565b505050505b6108b98888888885610b0c565b5050505050505050565b6001600160a01b039182165f90815260016020908152604080832093909416825291909152205460ff1690565b6108fd8585858585610b98565b5050505050565b61090c61099f565b6001600160a01b03811661093557604051631e4fbdf760e01b81525f6004820152602401610503565b61093e816109cc565b50565b6001600160a01b03841661096a57604051632bfa23e760e11b81525f6004820152602401610503565b6001600160a01b03851661099257604051626a0d4560e21b81525f6004820152602401610503565b6108fd8585858585610bf7565b6003546001600160a01b031633146106055760405163118cdaa760e01b8152336004820152602401610503565b600380546001600160a01b038381166001600160a01b0319831681179093556040519116919082907f8be0079c531659141344cd1fd0a4f28419497f9722a3daafe3b4186f6b6457e0905f90a35050565b6001600160a01b038416610a4657604051632bfa23e760e11b81525f6004820152602401610503565b604080516001808252602082018690528183019081526060820185905260808201909252906105195f87848487610bf7565b6001600160a01b038216610aa05760405162ced3e160e81b81525f6004820152602401610503565b6001600160a01b038381165f81815260016020908152604080832094871680845294825291829020805460ff191686151590811790915591519182527f17307eab39ab6107e8899845ad3d59bd9653f200f220920489ca2b5937696c31910160405180910390a3505050565b6001600160a01b038416610b3557604051632bfa23e760e11b81525f6004820152602401610503565b6001600160a01b038516610b5d57604051626a0d4560e21b81525f6004820152602401610503565b60408051600180825260208201869052818301908152606082018590526080820190925290610b8f8787848487610bf7565b50505050505050565b336001600160a01b0386168114801590610bb95750610bb786826108c3565b155b15610bea5760405163711bec9160e11b81526001600160a01b03808316600483015287166024820152604401610503565b6105198686868686610b0c565b610c0385858585610c4a565b6001600160a01b038416156108fd5782513390600103610c3c5760208481015190840151610c35838989858589610fef565b5050610519565b610519818787878787611110565b6001600160a01b038416610ce6575f5b8251811015610cd4575f838281518110610c7657610c76611a7b565b6020908102919091018101516001600160a01b0387165f8181526007845260408082208483528552808220429055918152600884528181209281529190925220805460ff191660011790555080610ccc81611aa3565b915050610c5a565b50610ce1848484846111f7565b61061b565b6001600160a01b038316610d0057610ce1848484846111f7565b5f5b8251811015610fe2575f838281518110610d1e57610d1e611a7b565b602002602001015190505f838381518110610d3b57610d3b611a7b565b6020908102919091018101516001600160a01b0389165f8181526007845260408082208783528552808220549282526008855280822087835290945292832054919350919060ff1615610d9257506203f480610d98565b50620151805b610da28183611bfe565b6001600160a01b038a165f9081526008602090815260408083208884529091529020544291909110159060ff16610e0e576040518060400160405280601e81526020017f5469636b6574436f6c6c656374696f6e3a20636f6f6c646f776e203234680000815250610e45565b6040518060400160405280601e81526020017f5469636b6574436f6c6c656374696f6e3a20636f6f6c646f776e2037326800008152505b90610e635760405162461bcd60e51b815260040161050391906114f8565b506005546001600160a01b031615610f6e5760408051610100810182526001600160a01b03808c1682528a8116602080840191909152828401889052606083018790525f608084018190524260a08501528451808301865281815260c08501528451918201855280825260e08401919091526005549351630ae7501f60e41b8152929390928392919091169063ae7501f090610f03908690600401611abb565b5f60405180830381865afa158015610f1d573d5f803e3d5ffd5b505050506040513d5f823e601f3d908101601f19168201604052610f449190810190611b54565b9250509150818190610f695760405162461bcd60e51b815260040161050391906114f8565b505050505b5050506001600160a01b038086165f818152600760209081526040808320868452825280832042905592825260088082528383208684528252838320805460ff19908116909155948b1683528152828220948252939093529091208054909116905580610fda81611aa3565b915050610d02565b5061061b848484846111f7565b6001600160a01b0384163b156105195760405163f23a6e6160e01b81526001600160a01b0385169063f23a6e61906110339089908990889088908890600401611c11565b6020604051808303815f875af192505050801561106d575060408051601f3d908101601f1916820190925261106a91810190611c55565b60015b6110d4573d80801561109a576040519150601f19603f3d011682016040523d82523d5f602084013e61109f565b606091505b5080515f036110cc57604051632bfa23e760e11b81526001600160a01b0386166004820152602401610503565b805160208201fd5b6001600160e01b0319811663f23a6e6160e01b14610b8f57604051632bfa23e760e11b81526001600160a01b0386166004820152602401610503565b6001600160a01b0384163b156105195760405163bc197c8160e01b81526001600160a01b0385169063bc197c81906111549089908990889088908890600401611c70565b6020604051808303815f875af192505050801561118e575060408051601f3d908101601f1916820190925261118b91810190611c55565b60015b6111bb573d80801561109a576040519150601f19603f3d011682016040523d82523d5f602084013e61109f565b6001600160e01b0319811663bc197c8160e01b14610b8f57604051632bfa23e760e11b81526001600160a01b0386166004820152602401610503565b80518251146112265781518151604051635b05999160e01b815260048101929092526024820152604401610503565b335f5b8351811015611331576020818102858101820151908501909101516001600160a01b038816156112da575f828152602081815260408083206001600160a01b038c168452909152902054818110156112b4576040516303dee4c560e01b81526001600160a01b038a166004820152602481018290526044810183905260648101849052608401610503565b5f838152602081815260408083206001600160a01b038d16845290915290209082900390555b6001600160a01b0387161561131e575f828152602081815260408083206001600160a01b038b16845290915281208054839290611318908490611bfe565b90915550505b50508061132a90611aa3565b9050611229565b5082516001036113b15760208301515f906020840151909150856001600160a01b0316876001600160a01b0316846001600160a01b03167fc3d58168c5ae7397731d063d5bbf3d657854427343f4c083240f7aacaa2d0f6285856040516113a2929190918252602082015260400190565b60405180910390a450506108fd565b836001600160a01b0316856001600160a01b0316826001600160a01b03167f4a39dc06d4c0dbc64b70af90fd698a233a518aa5d07e595d983b8c0526c8f7fb8686604051611400929190611ccd565b60405180910390a45050505050565b6001600160a01b038116811461093e575f80fd5b803561142e8161140f565b919050565b5f8060408385031215611444575f80fd5b823561144f8161140f565b946020939093013593505050565b6001600160e01b03198116811461093e575f80fd5b5f60208284031215611482575f80fd5b813561148d8161145d565b9392505050565b5f602082840312156114a4575f80fd5b5035919050565b5f5b838110156114c55781810151838201526020016114ad565b50505f910152565b5f81518084526114e48160208601602086016114ab565b601f01601f19169290920160200192915050565b602081525f61148d60208301846114cd565b634e487b7160e01b5f52604160045260245ffd5b604051601f8201601f1916810167ffffffffffffffff811182821017156115475761154761150a565b604052919050565b5f67ffffffffffffffff8211156115685761156861150a565b5060051b60200190565b5f82601f830112611581575f80fd5b813560206115966115918361154f565b61151e565b82815260059290921b840181019181810190868411156115b4575f80fd5b8286015b848110156115cf57803583529183019183016115b8565b509695505050505050565b5f67ffffffffffffffff8211156115f3576115f361150a565b50601f01601f191660200190565b5f82601f830112611610575f80fd5b813561161e611591826115da565b818152846020838601011115611632575f80fd5b816020850160208301375f918101602001919091529392505050565b5f805f805f60a08688031215611662575f80fd5b853561166d8161140f565b9450602086013561167d8161140f565b9350604086013567ffffffffffffffff80821115611699575f80fd5b6116a589838a01611572565b945060608801359150808211156116ba575f80fd5b6116c689838a01611572565b935060808801359150808211156116db575f80fd5b506116e888828901611601565b9150509295509295909350565b5f8060408385031215611706575f80fd5b823567ffffffffffffffff8082111561171d575f80fd5b818501915085601f830112611730575f80fd5b813560206117406115918361154f565b82815260059290921b8401810191818101908984111561175e575f80fd5b948201945b838610156117855785356117768161140f565b82529482019490820190611763565b9650508601359250508082111561179a575f80fd5b506117a785828601611572565b9150509250929050565b5f8151808452602080850194508084015f5b838110156117df578151875295820195908201906001016117c3565b509495945050505050565b602081525f61148d60208301846117b1565b5f805f806080858703121561180f575f80fd5b843561181a8161140f565b93506020850135925060408501359150606085013567ffffffffffffffff811115611843575f80fd5b61184f87828801611601565b91505092959194509250565b801515811461093e575f80fd5b5f8060408385031215611879575f80fd5b82356118848161140f565b915060208301356118948161185b565b809150509250929050565b5f602082840312156118af575f80fd5b813561148d8161140f565b5f80604083850312156118cb575f80fd5b82359150602083013567ffffffffffffffff8111156118e8575f80fd5b6117a785828601611601565b5f805f805f805f80610100898b03121561190c575f80fd5b61191589611423565b975061192360208a01611423565b965060408901359550606089013594506080890135935060a089013567ffffffffffffffff80821115611954575f80fd5b6119608c838d01611601565b945060c08b0135915080821115611975575f80fd5b6119818c838d01611601565b935060e08b0135915080821115611996575f80fd5b506119a38b828c01611601565b9150509295985092959890939650565b5f80604083850312156119c4575f80fd5b82356119cf8161140f565b915060208301356118948161140f565b5f805f805f60a086880312156119f3575f80fd5b85356119fe8161140f565b94506020860135611a0e8161140f565b93506040860135925060608601359150608086013567ffffffffffffffff811115611a37575f80fd5b6116e888828901611601565b600181811c90821680611a5757607f821691505b602082108103611a7557634e487b7160e01b5f52602260045260245ffd5b50919050565b634e487b7160e01b5f52603260045260245ffd5b634e487b7160e01b5f52601160045260245ffd5b5f60018201611ab457611ab4611a8f565b5060010190565b602080825282516001600160a01b0316828201528201515f90611ae960408401826001600160a01b03169052565b506040830151606083015260608301516080830152608083015160a083015260a083015160c083015260c08301516101008060e0850152611b2e6101208501836114cd565b915060e0850151601f198584030182860152611b4a83826114cd565b9695505050505050565b5f805f60608486031215611b66575f80fd5b8351611b718161185b565b60208501519093506bffffffffffffffffffffffff81168114611b92575f80fd5b604085015190925067ffffffffffffffff811115611bae575f80fd5b8401601f81018613611bbe575f80fd5b8051611bcc611591826115da565b818152876020838501011115611be0575f80fd5b611bf18260208301602086016114ab565b8093505050509250925092565b8082018082111561034257610342611a8f565b6001600160a01b03868116825285166020820152604081018490526060810183905260a0608082018190525f90611c4a908301846114cd565b979650505050505050565b5f60208284031215611c65575f80fd5b815161148d8161145d565b6001600160a01b0386811682528516602082015260a0604082018190525f90611c9b908301866117b1565b8281036060840152611cad81866117b1565b90508281036080840152611cc181856114cd565b98975050505050505050565b604081525f611cdf60408301856117b1565b8281036020840152611cf181856117b1565b9594505050505056fea2646970667358221220fb09d6192d78b85bb956bdd8323e8ecf1dafe88e1c6a6401dfc6a1496ac0ff3164736f6c63430008140033","linkReferences":{}},"methodIdentifiers":{"balanceOf(address,uint256)":"00fdd58e","balanceOfBatch(address[],uint256[])":"4e1273f4","checkIn(uint256,bytes)":"b1674d67","checkedIn(uint256)":"02086596","firstTransferPending(address,uint256)":"283477ea","isApprovedForAll(address,address)":"e985e9c5","lastTransferTime(address,uint256)":"95536172","mint(address,uint256,uint256,bytes)":"731133e9","name()":"06fdde03","owner()":"8da5cb5b","renounceOwnership()":"715018a6","ruleEngine()":"fcf196b4","safeBatchTransferFrom(address,address,uint256[],uint256[],bytes)":"2eb2c2d6","safeTransferFrom(address,address,uint256,uint256,bytes)":"f242432a","safeTransferFromWithPrice(address,address,uint256,uint256,uint256,bytes,bytes,bytes)":"d6d2a78d","setApprovalForAll(address,bool)":"a22cb465","setRuleEngine(address)":"a4a0a301","supportsInterface(bytes4)":"01ffc9a7","transferOwnership(address)":"f2fde38b","uri(uint256)":"0e89341c"},"id":2}